{
  "contractName": "EsembleApp",
  "abi": [
    {
      "constant": true,
      "inputs": [
        {
          "name": "",
          "type": "address"
        }
      ],
      "name": "userToId",
      "outputs": [
        {
          "name": "",
          "type": "uint256"
        }
      ],
      "payable": false,
      "stateMutability": "view",
      "type": "function"
    },
    {
      "constant": true,
      "inputs": [
        {
          "name": "",
          "type": "uint256"
        }
      ],
      "name": "users",
      "outputs": [
        {
          "name": "name",
          "type": "string"
        },
        {
          "name": "ethAddr",
          "type": "address"
        },
        {
          "name": "isProvider",
          "type": "bool"
        }
      ],
      "payable": false,
      "stateMutability": "view",
      "type": "function"
    },
    {
      "constant": true,
      "inputs": [
        {
          "name": "",
          "type": "uint256"
        }
      ],
      "name": "skillsList",
      "outputs": [
        {
          "name": "skillName",
          "type": "string"
        }
      ],
      "payable": false,
      "stateMutability": "view",
      "type": "function"
    },
    {
      "inputs": [],
      "payable": false,
      "stateMutability": "nonpayable",
      "type": "constructor"
    },
    {
      "anonymous": false,
      "inputs": [
        {
          "indexed": false,
          "name": "_name",
          "type": "string"
        },
        {
          "indexed": false,
          "name": "_ethAddr",
          "type": "address"
        },
        {
          "indexed": false,
          "name": "_isProvider",
          "type": "bool"
        },
        {
          "indexed": false,
          "name": "sChainAddr",
          "type": "address"
        }
      ],
      "name": "UserAdded",
      "type": "event"
    },
    {
      "anonymous": false,
      "inputs": [
        {
          "indexed": false,
          "name": "_skillName",
          "type": "string"
        }
      ],
      "name": "SkillAdded",
      "type": "event"
    },
    {
      "constant": false,
      "inputs": [
        {
          "name": "_name",
          "type": "string"
        },
        {
          "name": "_ethAddr",
          "type": "address"
        },
        {
          "name": "_isProvider",
          "type": "bool"
        }
      ],
      "name": "addUser",
      "outputs": [],
      "payable": false,
      "stateMutability": "nonpayable",
      "type": "function"
    },
    {
      "constant": true,
      "inputs": [],
      "name": "numberOfUsers",
      "outputs": [
        {
          "name": "",
          "type": "uint256"
        }
      ],
      "payable": false,
      "stateMutability": "view",
      "type": "function"
    },
    {
      "constant": true,
      "inputs": [
        {
          "name": "_ethAddr",
          "type": "address"
        }
      ],
      "name": "idForEthAddr",
      "outputs": [
        {
          "name": "",
          "type": "uint256"
        }
      ],
      "payable": false,
      "stateMutability": "view",
      "type": "function"
    },
    {
      "constant": true,
      "inputs": [],
      "name": "numberOfSkills",
      "outputs": [
        {
          "name": "",
          "type": "uint256"
        }
      ],
      "payable": false,
      "stateMutability": "view",
      "type": "function"
    },
    {
      "constant": false,
      "inputs": [
        {
          "name": "_skillName",
          "type": "string"
        }
      ],
      "name": "addSkill",
      "outputs": [],
      "payable": false,
      "stateMutability": "nonpayable",
      "type": "function"
    },
    {
      "constant": true,
      "inputs": [
        {
          "name": "a",
          "type": "string"
        },
        {
          "name": "b",
          "type": "string"
        }
      ],
      "name": "compareStrings",
      "outputs": [
        {
          "name": "",
          "type": "bool"
        }
      ],
      "payable": false,
      "stateMutability": "pure",
      "type": "function"
    }
  ],
  "bytecode": "0x60806040523480156200001157600080fd5b50620000616040805190810160405280600a81526020017f4a6176617363726970740000000000000000000000000000000000000000000081525062000154640100000000026401000000009004565b620000b06040805190810160405280600a81526020017f547970657363726970740000000000000000000000000000000000000000000081525062000154640100000000026401000000009004565b620000ff6040805190810160405280600581526020017f526561637400000000000000000000000000000000000000000000000000000081525062000154640100000000026401000000009004565b6200014e6040805190810160405280600881526020017f536f6c696469747900000000000000000000000000000000000000000000000081525062000154640100000000026401000000009004565b6200037b565b60008160016000602060405190810160405280868152509080600181540180825580915050906001820390600052602060002001600090919290919091506000820151816000019080519060200190620001b0929190620002cc565b505050039150816003846040518082805190602001908083835b602083101515620001f15780518252602082019150602081019050602083039250620001ca565b6001836020036101000a0380198251168184511680821785525050505050509050019150509081526020016040518091039020819055507fcb8a9b44b245cdca72405c0a2628ed21545891648966a64f502761bc3e49eaf9836040518080602001828103825283818151815260200191508051906020019080838360005b838110156200028c5780820151818401526020810190506200026f565b50505050905090810190601f168015620002ba5780820380516001836020036101000a031916815260200191505b509250505060405180910390a1505050565b828054600181600116156101000203166002900490600052602060002090601f016020900481019282601f106200030f57805160ff191683800117855562000340565b8280016001018555821562000340579182015b828111156200033f57825182559160200191906001019062000322565b5b5090506200034f919062000353565b5090565b6200037891905b80821115620003745760008160009055506001016200035a565b5090565b90565b610dab806200038b6000396000f300608060405260043610610099576000357c0100000000000000000000000000000000000000000000000000000000900463ffffffff1680630b4805d31461009e5780631e324990146100f5578063365b98b21461015e5780633981b43f146102425780634f341cfc1461029957806375ce46a7146102c4578063bed34bba146102ef578063dcde3ce9146103b6578063fd43d2e01461045c575b600080fd5b3480156100aa57600080fd5b506100df600480360381019080803573ffffffffffffffffffffffffffffffffffffffff1690602001909291905050506104f1565b6040518082815260200191505060405180910390f35b34801561010157600080fd5b5061015c600480360381019080803590602001908201803590602001908080601f0160208091040260200160405190810160405280939291908181526020018383808284378201915050505050509192919290505050610509565b005b34801561016a57600080fd5b506101896004803603810190808035906020019092919050505061067a565b60405180806020018473ffffffffffffffffffffffffffffffffffffffff1673ffffffffffffffffffffffffffffffffffffffff16815260200183151515158152602001828103825285818151815260200191508051906020019080838360005b838110156102055780820151818401526020810190506101ea565b50505050905090810190601f1680156102325780820380516001836020036101000a031916815260200191505b5094505050505060405180910390f35b34801561024e57600080fd5b50610283600480360381019080803573ffffffffffffffffffffffffffffffffffffffff169060200190929190505050610778565b6040518082815260200191505060405180910390f35b3480156102a557600080fd5b506102ae6107c1565b6040518082815260200191505060405180910390f35b3480156102d057600080fd5b506102d96107cd565b6040518082815260200191505060405180910390f35b3480156102fb57600080fd5b5061039c600480360381019080803590602001908201803590602001908080601f0160208091040260200160405190810160405280939291908181526020018383808284378201915050505050509192919290803590602001908201803590602001908080601f01602080910402602001604051908101604052809392919081815260200183838082843782019150505050505091929192905050506107da565b604051808215151515815260200191505060405180910390f35b3480156103c257600080fd5b506103e16004803603810190808035906020019092919050505061098b565b6040518080602001828103825283818151815260200191508051906020019080838360005b83811015610421578082015181840152602081019050610406565b50505050905090810190601f16801561044e5780820380516001836020036101000a031916815260200191505b509250505060405180910390f35b34801561046857600080fd5b506104ef600480360381019080803590602001908201803590602001908080601f0160208091040260200160405190810160405280939291908181526020018383808284378201915050505050509192919290803573ffffffffffffffffffffffffffffffffffffffff169060200190929190803515159060200190929190505050610a4c565b005b60026020528060005260406000206000915090505481565b60008160016000602060405190810160405280868152509080600181540180825580915050906001820390600052602060002001600090919290919091506000820151816000019080519060200190610563929190610cda565b505050039150816003846040518082805190602001908083835b6020831015156105a2578051825260208201915060208101905060208303925061057d565b6001836020036101000a0380198251168184511680821785525050505050509050019150509081526020016040518091039020819055507fcb8a9b44b245cdca72405c0a2628ed21545891648966a64f502761bc3e49eaf9836040518080602001828103825283818151815260200191508051906020019080838360005b8381101561063b578082015181840152602081019050610620565b50505050905090810190601f1680156106685780820380516001836020036101000a031916815260200191505b509250505060405180910390a1505050565b60018181548110151561068957fe5b9060005260206000209060020201600091509050806000018054600181600116156101000203166002900480601f0160208091040260200160405190810160405280929190818152602001828054600181600116156101000203166002900480156107355780601f1061070a57610100808354040283529160200191610735565b820191906000526020600020905b81548152906001019060200180831161071857829003601f168201915b5050505050908060010160009054906101000a900473ffffffffffffffffffffffffffffffffffffffff16908060010160149054906101000a900460ff16905083565b6000600260008373ffffffffffffffffffffffffffffffffffffffff1673ffffffffffffffffffffffffffffffffffffffff168152602001908152602001600020549050919050565b60008080549050905090565b6000600180549050905090565b6000816040516020018082805190602001908083835b60208310151561081557805182526020820191506020810190506020830392506107f0565b6001836020036101000a0380198251168184511680821785525050505050509050019150506040516020818303038152906040526040518082805190602001908083835b60208310151561087e5780518252602082019150602081019050602083039250610859565b6001836020036101000a038019825116818451168082178552505050505050905001915050604051809103902060001916836040516020018082805190602001908083835b6020831015156108e857805182526020820191506020810190506020830392506108c3565b6001836020036101000a0380198251168184511680821785525050505050509050019150506040516020818303038152906040526040518082805190602001908083835b602083101515610951578051825260208201915060208101905060208303925061092c565b6001836020036101000a03801982511681845116808217855250505050505090500191505060405180910390206000191614905092915050565b60008181548110151561099a57fe5b90600052602060002001600091509050806000018054600181600116156101000203166002900480601f016020809104026020016040519081016040528092919081815260200182805460018160011615610100020316600290048015610a425780601f10610a1757610100808354040283529160200191610a42565b820191906000526020600020905b815481529060010190602001808311610a2557829003601f168201915b5050505050905081565b6000826000600260008373ffffffffffffffffffffffffffffffffffffffff1673ffffffffffffffffffffffffffffffffffffffff1681526020019081526020016000205490506001806060604051908101604052808981526020018873ffffffffffffffffffffffffffffffffffffffff168152602001871515815250908060018154018082558091505090600182039060005260206000209060020201600090919290919091506000820151816000019080519060200190610b11929190610cda565b5060208201518160010160006101000a81548173ffffffffffffffffffffffffffffffffffffffff021916908373ffffffffffffffffffffffffffffffffffffffff16021790555060408201518160010160146101000a81548160ff021916908315150217905550505003925082600260008773ffffffffffffffffffffffffffffffffffffffff1673ffffffffffffffffffffffffffffffffffffffff168152602001908152602001600020819055507ffddfbf8588cfefa7a4b16f16617617b7a1f939c33c14602e6c24d6a36a27149e8686863360405180806020018573ffffffffffffffffffffffffffffffffffffffff1673ffffffffffffffffffffffffffffffffffffffff168152602001841515151581526020018373ffffffffffffffffffffffffffffffffffffffff1673ffffffffffffffffffffffffffffffffffffffff168152602001828103825286818151815260200191508051906020019080838360005b83811015610c95578082015181840152602081019050610c7a565b50505050905090810190601f168015610cc25780820380516001836020036101000a031916815260200191505b509550505050505060405180910390a1505050505050565b828054600181600116156101000203166002900490600052602060002090601f016020900481019282601f10610d1b57805160ff1916838001178555610d49565b82800160010185558215610d49579182015b82811115610d48578251825591602001919060010190610d2d565b5b509050610d569190610d5a565b5090565b610d7c91905b80821115610d78576000816000905550600101610d60565b5090565b905600a165627a7a72305820640bc452a3454b6e5384c95d99419ae9a4d8148a6f42bc204dd04f0654af675d0029",
  "source": "pragma solidity ^0.4.23;\r\n\r\ncontract EsembleApp {\r\n \r\n  struct User{\r\n    string name;\r\n    address ethAddr;\r\n    bool isProvider;\r\n    //skills : TODO\r\n  }\r\n\r\n  struct Skill{\r\n    string skillName;\r\n  }\r\n\r\n  struct SOS {\r\n    string description;\r\n    Skill[] skills;\r\n  }\r\n\r\n \r\n  Skill[] public skillsList;\r\n  User[] public users;\r\n  mapping (address => uint) public userToId;\r\n  mapping (string => uint) private skillNameToIndex;\r\n  \r\n\r\n  constructor() public{\r\n    addSkill(\"Javascript\");\r\n    addSkill(\"Typescript\");\r\n    addSkill(\"React\");\r\n    addSkill(\"Solidity\");\r\n  }\r\n\r\n\r\n  /* User */\r\n\r\n  event UserAdded(string _name, address _ethAddr, bool _isProvider, address sChainAddr);\r\n \r\n\r\n  modifier onlyOne(address _ethAddr) {\r\n    uint id = userToId[_ethAddr];\r\n    // require(users[id].ethAddr != _ethAddr, \"Ethereum address already in use\");\r\n    _;\r\n  }\r\n\r\n  modifier noRepeats(string _skillName){\r\n    //uint id = skillNameToIndex[_skillName];\r\n    //require(compareStrings(skillsList[id].skillName, _skillName), \"Skill already exists can not add a duplicate\");\r\n    //require (!compareStrings(s.skillName, _skillName), \"That skill already exists, can not add a duplicate\");\r\n    _;\r\n  }\r\n\r\n  function addUser(string _name, address _ethAddr, bool _isProvider) public onlyOne(_ethAddr){\r\n    uint id = users.push(User(_name, _ethAddr, _isProvider)) - 1;\r\n    userToId[_ethAddr] = id;\r\n    emit UserAdded(_name, _ethAddr, _isProvider, msg.sender);\r\n  }\r\n\r\n  function numberOfUsers() public view returns (uint){\r\n    return users.length;\r\n  }\r\n\r\n  function idForEthAddr(address _ethAddr) public view returns (uint){\r\n    return (userToId[_ethAddr]);\r\n  }\r\n\r\n\r\n  /* SoS */\r\n   event SkillAdded(string _skillName);\r\n\r\n  function numberOfSkills() public view returns (uint){\r\n    return skillsList.length;\r\n  }\r\n\r\n  function addSkill(string _skillName) public noRepeats(_skillName) {\r\n    uint index = skillsList.push(Skill(_skillName)) - 1;\r\n    skillNameToIndex[_skillName] = index;\r\n    emit SkillAdded(_skillName);\r\n  }\r\n\r\n\r\n  /* Helpers */\r\n   function compareStrings (string memory a, string memory b) public pure returns (bool) {\r\n    return (keccak256(abi.encodePacked((a))) == keccak256(abi.encodePacked((b))) );\r\n  }\r\n}",
  "sourcePath": "C:/lib/3DEV/esm-schain/contracts/EsembleApp.sol",
  "compiler": {
    "name": "solc",
    "version": "0.4.24+commit.e67f0147.Emscripten.clang"
  },
  "schemaVersion": "3.0.1",
  "updatedAt": "2019-07-02T14:44:36.630Z",
  "devdoc": {
    "methods": {}
  },
  "userdoc": {
    "methods": {}
  }
}